{
  "_format": "hh-sol-artifact-1",
  "contractName": "SEGuard",
  "sourceName": "contracts/SEGuard.sol",
  "abi": [
    {
      "inputs": [],
      "stateMutability": "nonpayable",
      "type": "constructor"
    },
    {
      "anonymous": false,
      "inputs": [
        {
          "indexed": true,
          "internalType": "address",
          "name": "wallet",
          "type": "address"
        }
      ],
      "name": "AddressCleared",
      "type": "event"
    },
    {
      "anonymous": false,
      "inputs": [
        {
          "indexed": true,
          "internalType": "address",
          "name": "wallet",
          "type": "address"
        },
        {
          "indexed": false,
          "internalType": "string",
          "name": "reason",
          "type": "string"
        }
      ],
      "name": "AddressFlagged",
      "type": "event"
    },
    {
      "inputs": [
        {
          "internalType": "address",
          "name": "wallet",
          "type": "address"
        }
      ],
      "name": "clear",
      "outputs": [],
      "stateMutability": "nonpayable",
      "type": "function"
    },
    {
      "inputs": [
        {
          "internalType": "address",
          "name": "wallet",
          "type": "address"
        },
        {
          "internalType": "string",
          "name": "reason",
          "type": "string"
        }
      ],
      "name": "flag",
      "outputs": [],
      "stateMutability": "nonpayable",
      "type": "function"
    },
    {
      "inputs": [
        {
          "internalType": "address",
          "name": "",
          "type": "address"
        }
      ],
      "name": "flagged",
      "outputs": [
        {
          "internalType": "bool",
          "name": "",
          "type": "bool"
        }
      ],
      "stateMutability": "view",
      "type": "function"
    },
    {
      "inputs": [
        {
          "internalType": "address",
          "name": "wallet",
          "type": "address"
        }
      ],
      "name": "isFlagged",
      "outputs": [
        {
          "internalType": "bool",
          "name": "",
          "type": "bool"
        }
      ],
      "stateMutability": "view",
      "type": "function"
    },
    {
      "inputs": [],
      "name": "owner",
      "outputs": [
        {
          "internalType": "address",
          "name": "",
          "type": "address"
        }
      ],
      "stateMutability": "view",
      "type": "function"
    }
  ],
  "bytecode": "0x608060405234801561001057600080fd5b50336000806101000a81548173ffffffffffffffffffffffffffffffffffffffff021916908373ffffffffffffffffffffffffffffffffffffffff1602179055506107f3806100606000396000f3fe608060405234801561001057600080fd5b50600436106100575760003560e01c80633d0a40611461005c5780637e11d1c6146100785780638da5cb5b14610094578063cb2505cf146100b2578063fef48a99146100e2575b600080fd5b61007660048036038101906100719190610481565b610112565b005b610092600480360381019061008d91906105f4565b61023e565b005b61009c610375565b6040516100a9919061065f565b60405180910390f35b6100cc60048036038101906100c79190610481565b610399565b6040516100d99190610695565b60405180910390f35b6100fc60048036038101906100f79190610481565b6103b9565b6040516101099190610695565b60405180910390f35b60008054906101000a900473ffffffffffffffffffffffffffffffffffffffff1673ffffffffffffffffffffffffffffffffffffffff163373ffffffffffffffffffffffffffffffffffffffff16146101a0576040517f08c379a00000000000000000000000000000000000000000000000000000000081526004016101979061070d565b60405180910390fd5b6000600160008373ffffffffffffffffffffffffffffffffffffffff1673ffffffffffffffffffffffffffffffffffffffff16815260200190815260200160002060006101000a81548160ff0219169083151502179055508073ffffffffffffffffffffffffffffffffffffffff167fb2867b3f540b92ce8ed9ac375b8a02caf8f3e31b6f33ed8f847447bfa1ef6fb160405160405180910390a250565b60008054906101000a900473ffffffffffffffffffffffffffffffffffffffff1673ffffffffffffffffffffffffffffffffffffffff163373ffffffffffffffffffffffffffffffffffffffff16146102cc576040517f08c379a00000000000000000000000000000000000000000000000000000000081526004016102c39061070d565b60405180910390fd5b60018060008473ffffffffffffffffffffffffffffffffffffffff1673ffffffffffffffffffffffffffffffffffffffff16815260200190815260200160002060006101000a81548160ff0219169083151502179055508173ffffffffffffffffffffffffffffffffffffffff167f390bd6492b4d6d6a2a9e8ea7af0922a4f7658aefadf28fa710177bc16cb1f02a82604051610369919061079b565b60405180910390a25050565b60008054906101000a900473ffffffffffffffffffffffffffffffffffffffff1681565b60016020528060005260406000206000915054906101000a900460ff1681565b6000600160008373ffffffffffffffffffffffffffffffffffffffff1673ffffffffffffffffffffffffffffffffffffffff16815260200190815260200160002060009054906101000a900460ff169050919050565b6000604051905090565b600080fd5b600080fd5b600073ffffffffffffffffffffffffffffffffffffffff82169050919050565b600061044e82610423565b9050919050565b61045e81610443565b811461046957600080fd5b50565b60008135905061047b81610455565b92915050565b60006020828403121561049757610496610419565b5b60006104a58482850161046c565b91505092915050565b600080fd5b600080fd5b6000601f19601f8301169050919050565b7f4e487b7100000000000000000000000000000000000000000000000000000000600052604160045260246000fd5b610501826104b8565b810181811067ffffffffffffffff821117156105205761051f6104c9565b5b80604052505050565b600061053361040f565b905061053f82826104f8565b919050565b600067ffffffffffffffff82111561055f5761055e6104c9565b5b610568826104b8565b9050602081019050919050565b82818337600083830152505050565b600061059761059284610544565b610529565b9050828152602081018484840111156105b3576105b26104b3565b5b6105be848285610575565b509392505050565b600082601f8301126105db576105da6104ae565b5b81356105eb848260208601610584565b91505092915050565b6000806040838503121561060b5761060a610419565b5b60006106198582860161046c565b925050602083013567ffffffffffffffff81111561063a5761063961041e565b5b610646858286016105c6565b9150509250929050565b61065981610443565b82525050565b60006020820190506106746000830184610650565b92915050565b60008115159050919050565b61068f8161067a565b82525050565b60006020820190506106aa6000830184610686565b92915050565b600082825260208201905092915050565b7f4e6f7420617574686f72697a6564000000000000000000000000000000000000600082015250565b60006106f7600e836106b0565b9150610702826106c1565b602082019050919050565b60006020820190508181036000830152610726816106ea565b9050919050565b600081519050919050565b60005b8381101561075657808201518184015260208101905061073b565b60008484015250505050565b600061076d8261072d565b61077781856106b0565b9350610787818560208601610738565b610790816104b8565b840191505092915050565b600060208201905081810360008301526107b58184610762565b90509291505056fea2646970667358221220bdba08d2b551aab3aeb2c6a30054d7d4b828899e4a4b941e13202715d88cd15a64736f6c63430008130033",
  "linkReferences": {},
  "deployedLinkReferences": {}
}