{
  "_format": "hh-sol-artifact-1",
  "contractName": "CustodyVault",
  "sourceName": "contracts/Custodyvault.sol",
  "abi": [
    {
      "inputs": [],
      "stateMutability": "nonpayable",
      "type": "constructor"
    },
    {
      "inputs": [],
      "name": "deposit",
      "outputs": [],
      "stateMutability": "payable",
      "type": "function"
    },
    {
      "inputs": [
        {
          "internalType": "address",
          "name": "",
          "type": "address"
        }
      ],
      "name": "deposits",
      "outputs": [
        {
          "internalType": "uint256",
          "name": "",
          "type": "uint256"
        }
      ],
      "stateMutability": "view",
      "type": "function"
    },
    {
      "inputs": [
        {
          "internalType": "address",
          "name": "user",
          "type": "address"
        }
      ],
      "name": "getBalance",
      "outputs": [
        {
          "internalType": "uint256",
          "name": "",
          "type": "uint256"
        }
      ],
      "stateMutability": "view",
      "type": "function"
    },
    {
      "inputs": [],
      "name": "owner",
      "outputs": [
        {
          "internalType": "address",
          "name": "",
          "type": "address"
        }
      ],
      "stateMutability": "view",
      "type": "function"
    },
    {
      "inputs": [
        {
          "internalType": "uint256",
          "name": "amount",
          "type": "uint256"
        }
      ],
      "name": "withdraw",
      "outputs": [],
      "stateMutability": "nonpayable",
      "type": "function"
    }
  ],
  "bytecode": "0x608060405234801561001057600080fd5b50336000806101000a81548173ffffffffffffffffffffffffffffffffffffffff021916908373ffffffffffffffffffffffffffffffffffffffff1602179055506105b7806100606000396000f3fe60806040526004361061004a5760003560e01c80632e1a7d4d1461004f5780638da5cb5b14610078578063d0e30db0146100a3578063f8b2cb4f146100ad578063fc7e286d146100ea575b600080fd5b34801561005b57600080fd5b5061007660048036038101906100719190610361565b610127565b005b34801561008457600080fd5b5061008d610249565b60405161009a91906103cf565b60405180910390f35b6100ab61026d565b005b3480156100b957600080fd5b506100d460048036038101906100cf9190610416565b6102c5565b6040516100e19190610452565b60405180910390f35b3480156100f657600080fd5b50610111600480360381019061010c9190610416565b61030e565b60405161011e9190610452565b60405180910390f35b80600160003373ffffffffffffffffffffffffffffffffffffffff1673ffffffffffffffffffffffffffffffffffffffff1681526020019081526020016000205410156101a9576040517f08c379a00000000000000000000000000000000000000000000000000000000081526004016101a0906104ca565b60405180910390fd5b80600160003373ffffffffffffffffffffffffffffffffffffffff1673ffffffffffffffffffffffffffffffffffffffff16815260200190815260200160002060008282546101f89190610519565b925050819055503373ffffffffffffffffffffffffffffffffffffffff166108fc829081150290604051600060405180830381858888f19350505050158015610245573d6000803e3d6000fd5b5050565b60008054906101000a900473ffffffffffffffffffffffffffffffffffffffff1681565b34600160003373ffffffffffffffffffffffffffffffffffffffff1673ffffffffffffffffffffffffffffffffffffffff16815260200190815260200160002060008282546102bc919061054d565b92505081905550565b6000600160008373ffffffffffffffffffffffffffffffffffffffff1673ffffffffffffffffffffffffffffffffffffffff168152602001908152602001600020549050919050565b60016020528060005260406000206000915090505481565b600080fd5b6000819050919050565b61033e8161032b565b811461034957600080fd5b50565b60008135905061035b81610335565b92915050565b60006020828403121561037757610376610326565b5b60006103858482850161034c565b91505092915050565b600073ffffffffffffffffffffffffffffffffffffffff82169050919050565b60006103b98261038e565b9050919050565b6103c9816103ae565b82525050565b60006020820190506103e460008301846103c0565b92915050565b6103f3816103ae565b81146103fe57600080fd5b50565b600081359050610410816103ea565b92915050565b60006020828403121561042c5761042b610326565b5b600061043a84828501610401565b91505092915050565b61044c8161032b565b82525050565b60006020820190506104676000830184610443565b92915050565b600082825260208201905092915050565b7f4e6f7420656e6f7567682062616c616e63650000000000000000000000000000600082015250565b60006104b460128361046d565b91506104bf8261047e565b602082019050919050565b600060208201905081810360008301526104e3816104a7565b9050919050565b7f4e487b7100000000000000000000000000000000000000000000000000000000600052601160045260246000fd5b60006105248261032b565b915061052f8361032b565b9250828203905081811115610547576105466104ea565b5b92915050565b60006105588261032b565b91506105638361032b565b925082820190508082111561057b5761057a6104ea565b5b9291505056fea2646970667358221220417a937aa1f22ddd0577f40adb32c6d9919c603ee2e7b2a9466d5a10f14c2c0b64736f6c63430008130033",
  "linkReferences": {},
  "deployedLinkReferences": {}
}