{
  "_format": "hh-sol-artifact-1",
  "contractName": "AIAgent",
  "sourceName": "contracts/aiagent.sol",
  "abi": [
    {
      "inputs": [],
      "stateMutability": "nonpayable",
      "type": "constructor"
    },
    {
      "inputs": [],
      "name": "latestAction",
      "outputs": [
        {
          "internalType": "string",
          "name": "",
          "type": "string"
        }
      ],
      "stateMutability": "view",
      "type": "function"
    },
    {
      "inputs": [
        {
          "internalType": "string",
          "name": "_action",
          "type": "string"
        }
      ],
      "name": "logAction",
      "outputs": [],
      "stateMutability": "nonpayable",
      "type": "function"
    },
    {
      "inputs": [],
      "name": "owner",
      "outputs": [
        {
          "internalType": "address",
          "name": "",
          "type": "address"
        }
      ],
      "stateMutability": "view",
      "type": "function"
    },
    {
      "inputs": [],
      "name": "status",
      "outputs": [
        {
          "internalType": "string",
          "name": "",
          "type": "string"
        }
      ],
      "stateMutability": "view",
      "type": "function"
    },
    {
      "inputs": [
        {
          "internalType": "string",
          "name": "_status",
          "type": "string"
        }
      ],
      "name": "updateStatus",
      "outputs": [],
      "stateMutability": "nonpayable",
      "type": "function"
    }
  ],
  "bytecode": "0x60806040523480156200001157600080fd5b50336000806101000a81548173ffffffffffffffffffffffffffffffffffffffff021916908373ffffffffffffffffffffffffffffffffffffffff1602179055506040518060400160405280600481526020017f49646c65000000000000000000000000000000000000000000000000000000008152506001908162000098919062000319565b5062000400565b600081519050919050565b7f4e487b7100000000000000000000000000000000000000000000000000000000600052604160045260246000fd5b7f4e487b7100000000000000000000000000000000000000000000000000000000600052602260045260246000fd5b600060028204905060018216806200012157607f821691505b602082108103620001375762000136620000d9565b5b50919050565b60008190508160005260206000209050919050565b60006020601f8301049050919050565b600082821b905092915050565b600060088302620001a17fffffffffffffffffffffffffffffffffffffffffffffffffffffffffffffffff8262000162565b620001ad868362000162565b95508019841693508086168417925050509392505050565b6000819050919050565b6000819050919050565b6000620001fa620001f4620001ee84620001c5565b620001cf565b620001c5565b9050919050565b6000819050919050565b6200021683620001d9565b6200022e620002258262000201565b8484546200016f565b825550505050565b600090565b6200024562000236565b620002528184846200020b565b505050565b5b818110156200027a576200026e6000826200023b565b60018101905062000258565b5050565b601f821115620002c95762000293816200013d565b6200029e8462000152565b81016020851015620002ae578190505b620002c6620002bd8562000152565b83018262000257565b50505b505050565b600082821c905092915050565b6000620002ee60001984600802620002ce565b1980831691505092915050565b6000620003098383620002db565b9150826002028217905092915050565b62000324826200009f565b67ffffffffffffffff81111562000340576200033f620000aa565b5b6200034c825462000108565b620003598282856200027e565b600060209050601f8311600181146200039157600084156200037c578287015190505b620003888582620002fb565b865550620003f8565b601f198416620003a1866200013d565b60005b82811015620003cb57848901518255600182019150602085019450602081019050620003a4565b86831015620003eb5784890151620003e7601f891682620002db565b8355505b6001600288020188555050505b505050505050565b61090280620004106000396000f3fe608060405234801561001057600080fd5b50600436106100575760003560e01c806307deee2e1461005c578063200d2ed21461007a5780632c21599814610098578063522020a8146100b45780638da5cb5b146100d0575b600080fd5b6100646100ee565b6040516100719190610406565b60405180910390f35b61008261017c565b60405161008f9190610406565b60405180910390f35b6100b260048036038101906100ad9190610497565b61020a565b005b6100ce60048036038101906100c99190610497565b6102ae565b005b6100d8610352565b6040516100e59190610525565b60405180910390f35b600280546100fb9061056f565b80601f01602080910402602001604051908101604052809291908181526020018280546101279061056f565b80156101745780601f1061014957610100808354040283529160200191610174565b820191906000526020600020905b81548152906001019060200180831161015757829003601f168201915b505050505081565b600180546101899061056f565b80601f01602080910402602001604051908101604052809291908181526020018280546101b59061056f565b80156102025780601f106101d757610100808354040283529160200191610202565b820191906000526020600020905b8154815290600101906020018083116101e557829003601f168201915b505050505081565b60008054906101000a900473ffffffffffffffffffffffffffffffffffffffff1673ffffffffffffffffffffffffffffffffffffffff163373ffffffffffffffffffffffffffffffffffffffff1614610298576040517f08c379a000000000000000000000000000000000000000000000000000000000815260040161028f906105ec565b60405180910390fd5b8181600191826102a99291906107fc565b505050565b60008054906101000a900473ffffffffffffffffffffffffffffffffffffffff1673ffffffffffffffffffffffffffffffffffffffff163373ffffffffffffffffffffffffffffffffffffffff161461033c576040517f08c379a0000000000000000000000000000000000000000000000000000000008152600401610333906105ec565b60405180910390fd5b81816002918261034d9291906107fc565b505050565b60008054906101000a900473ffffffffffffffffffffffffffffffffffffffff1681565b600081519050919050565b600082825260208201905092915050565b60005b838110156103b0578082015181840152602081019050610395565b60008484015250505050565b6000601f19601f8301169050919050565b60006103d882610376565b6103e28185610381565b93506103f2818560208601610392565b6103fb816103bc565b840191505092915050565b6000602082019050818103600083015261042081846103cd565b905092915050565b600080fd5b600080fd5b600080fd5b600080fd5b600080fd5b60008083601f84011261045757610456610432565b5b8235905067ffffffffffffffff81111561047457610473610437565b5b6020830191508360018202830111156104905761048f61043c565b5b9250929050565b600080602083850312156104ae576104ad610428565b5b600083013567ffffffffffffffff8111156104cc576104cb61042d565b5b6104d885828601610441565b92509250509250929050565b600073ffffffffffffffffffffffffffffffffffffffff82169050919050565b600061050f826104e4565b9050919050565b61051f81610504565b82525050565b600060208201905061053a6000830184610516565b92915050565b7f4e487b7100000000000000000000000000000000000000000000000000000000600052602260045260246000fd5b6000600282049050600182168061058757607f821691505b60208210810361059a57610599610540565b5b50919050565b7f4e6f7420617574686f72697a6564000000000000000000000000000000000000600082015250565b60006105d6600e83610381565b91506105e1826105a0565b602082019050919050565b60006020820190508181036000830152610605816105c9565b9050919050565b600082905092915050565b7f4e487b7100000000000000000000000000000000000000000000000000000000600052604160045260246000fd5b60008190508160005260206000209050919050565b60006020601f8301049050919050565b600082821b905092915050565b6000600883026106a87fffffffffffffffffffffffffffffffffffffffffffffffffffffffffffffffff8261066b565b6106b2868361066b565b95508019841693508086168417925050509392505050565b6000819050919050565b6000819050919050565b60006106f96106f46106ef846106ca565b6106d4565b6106ca565b9050919050565b6000819050919050565b610713836106de565b61072761071f82610700565b848454610678565b825550505050565b600090565b61073c61072f565b61074781848461070a565b505050565b5b8181101561076b57610760600082610734565b60018101905061074d565b5050565b601f8211156107b05761078181610646565b61078a8461065b565b81016020851015610799578190505b6107ad6107a58561065b565b83018261074c565b50505b505050565b600082821c905092915050565b60006107d3600019846008026107b5565b1980831691505092915050565b60006107ec83836107c2565b9150826002028217905092915050565b610806838361060c565b67ffffffffffffffff81111561081f5761081e610617565b5b610829825461056f565b61083482828561076f565b6000601f8311600181146108635760008415610851578287013590505b61085b85826107e0565b8655506108c3565b601f19841661087186610646565b60005b8281101561089957848901358255600182019150602085019450602081019050610874565b868310156108b657848901356108b2601f8916826107c2565b8355505b6001600288020188555050505b5050505050505056fea26469706673582212200ba219172b3292f2546e24b5c6b81904f939352c2436a97cb786411a2fdcdbb864736f6c63430008130033",
  "linkReferences": {},
  "deployedLinkReferences": {}
}