{
  "_format": "hh-sol-artifact-1",
  "contractName": "EscrowVault",
  "sourceName": "contracts/EscrowVault.sol",
  "abi": [
    {
      "inputs": [
        {
          "internalType": "address",
          "name": "_buyer",
          "type": "address"
        },
        {
          "internalType": "address",
          "name": "_seller",
          "type": "address"
        },
        {
          "internalType": "address",
          "name": "_arbiter",
          "type": "address"
        }
      ],
      "stateMutability": "payable",
      "type": "constructor"
    },
    {
      "inputs": [],
      "name": "amount",
      "outputs": [
        {
          "internalType": "uint256",
          "name": "",
          "type": "uint256"
        }
      ],
      "stateMutability": "view",
      "type": "function"
    },
    {
      "inputs": [],
      "name": "arbiter",
      "outputs": [
        {
          "internalType": "address",
          "name": "",
          "type": "address"
        }
      ],
      "stateMutability": "view",
      "type": "function"
    },
    {
      "inputs": [],
      "name": "buyer",
      "outputs": [
        {
          "internalType": "address",
          "name": "",
          "type": "address"
        }
      ],
      "stateMutability": "view",
      "type": "function"
    },
    {
      "inputs": [],
      "name": "isRefunded",
      "outputs": [
        {
          "internalType": "bool",
          "name": "",
          "type": "bool"
        }
      ],
      "stateMutability": "view",
      "type": "function"
    },
    {
      "inputs": [],
      "name": "isReleased",
      "outputs": [
        {
          "internalType": "bool",
          "name": "",
          "type": "bool"
        }
      ],
      "stateMutability": "view",
      "type": "function"
    },
    {
      "inputs": [],
      "name": "refundBuyer",
      "outputs": [],
      "stateMutability": "nonpayable",
      "type": "function"
    },
    {
      "inputs": [],
      "name": "releaseFunds",
      "outputs": [],
      "stateMutability": "nonpayable",
      "type": "function"
    },
    {
      "inputs": [],
      "name": "seller",
      "outputs": [
        {
          "internalType": "address",
          "name": "",
          "type": "address"
        }
      ],
      "stateMutability": "view",
      "type": "function"
    }
  ],
  "bytecode": "0x608060405260405161089138038061089183398181016040528101906100259190610159565b826000806101000a81548173ffffffffffffffffffffffffffffffffffffffff021916908373ffffffffffffffffffffffffffffffffffffffff16021790555081600160006101000a81548173ffffffffffffffffffffffffffffffffffffffff021916908373ffffffffffffffffffffffffffffffffffffffff16021790555080600260006101000a81548173ffffffffffffffffffffffffffffffffffffffff021916908373ffffffffffffffffffffffffffffffffffffffff160217905550346003819055505050506101ac565b600080fd5b600073ffffffffffffffffffffffffffffffffffffffff82169050919050565b6000610126826100fb565b9050919050565b6101368161011b565b811461014157600080fd5b50565b6000815190506101538161012d565b92915050565b600080600060608486031215610172576101716100f6565b5b600061018086828701610144565b935050602061019186828701610144565b92505060406101a286828701610144565b9150509250925092565b6106d6806101bb6000396000f3fe608060405234801561001057600080fd5b50600436106100885760003560e01c8063aa8c217c1161005b578063aa8c217c146100f1578063e8a61cc81461010f578063fa2a899714610119578063fe25e00a1461013757610088565b806308551a531461008d57806369d89575146100ab5780637150d8ae146100b5578063779cd083146100d3575b600080fd5b610095610155565b6040516100a29190610532565b60405180910390f35b6100b361017b565b005b6100bd6102fc565b6040516100ca9190610532565b60405180910390f35b6100db610320565b6040516100e89190610568565b60405180910390f35b6100f9610333565b604051610106919061059c565b60405180910390f35b610117610339565b005b6101216104b8565b60405161012e9190610568565b60405180910390f35b61013f6104cb565b60405161014c9190610532565b60405180910390f35b600160009054906101000a900473ffffffffffffffffffffffffffffffffffffffff1681565b600260009054906101000a900473ffffffffffffffffffffffffffffffffffffffff1673ffffffffffffffffffffffffffffffffffffffff163373ffffffffffffffffffffffffffffffffffffffff161461020b576040517f08c379a000000000000000000000000000000000000000000000000000000000815260040161020290610614565b60405180910390fd5b600460009054906101000a900460ff161580156102355750600460019054906101000a900460ff16155b610274576040517f08c379a000000000000000000000000000000000000000000000000000000000815260040161026b90610680565b60405180910390fd5b6001600460006101000a81548160ff021916908315150217905550600160009054906101000a900473ffffffffffffffffffffffffffffffffffffffff1673ffffffffffffffffffffffffffffffffffffffff166108fc6003549081150290604051600060405180830381858888f193505050501580156102f9573d6000803e3d6000fd5b50565b60008054906101000a900473ffffffffffffffffffffffffffffffffffffffff1681565b600460019054906101000a900460ff1681565b60035481565b600260009054906101000a900473ffffffffffffffffffffffffffffffffffffffff1673ffffffffffffffffffffffffffffffffffffffff163373ffffffffffffffffffffffffffffffffffffffff16146103c9576040517f08c379a00000000000000000000000000000000000000000000000000000000081526004016103c090610614565b60405180910390fd5b600460009054906101000a900460ff161580156103f35750600460019054906101000a900460ff16155b610432576040517f08c379a000000000000000000000000000000000000000000000000000000000815260040161042990610680565b60405180910390fd5b6001600460016101000a81548160ff02191690831515021790555060008054906101000a900473ffffffffffffffffffffffffffffffffffffffff1673ffffffffffffffffffffffffffffffffffffffff166108fc6003549081150290604051600060405180830381858888f193505050501580156104b5573d6000803e3d6000fd5b50565b600460009054906101000a900460ff1681565b600260009054906101000a900473ffffffffffffffffffffffffffffffffffffffff1681565b600073ffffffffffffffffffffffffffffffffffffffff82169050919050565b600061051c826104f1565b9050919050565b61052c81610511565b82525050565b60006020820190506105476000830184610523565b92915050565b60008115159050919050565b6105628161054d565b82525050565b600060208201905061057d6000830184610559565b92915050565b6000819050919050565b61059681610583565b82525050565b60006020820190506105b1600083018461058d565b92915050565b600082825260208201905092915050565b7f4e6f742061726269746572000000000000000000000000000000000000000000600082015250565b60006105fe600b836105b7565b9150610609826105c8565b602082019050919050565b6000602082019050818103600083015261062d816105f1565b9050919050565b7f416c72656164792070726f636573736564000000000000000000000000000000600082015250565b600061066a6011836105b7565b915061067582610634565b602082019050919050565b600060208201905081810360008301526106998161065d565b905091905056fea264697066735822122012d23421a16d9f816117ced4f3bdba0ed407f2c1646cb3e64f7d2b4e495345c464736f6c63430008130033",
  "linkReferences": {},
  "deployedLinkReferences": {}
}