{
  "_format": "hh-sol-artifact-1",
  "contractName": "TrustWall",
  "sourceName": "contracts/Trustwall.sol",
  "abi": [
    {
      "inputs": [],
      "stateMutability": "nonpayable",
      "type": "constructor"
    },
    {
      "anonymous": false,
      "inputs": [
        {
          "indexed": true,
          "internalType": "address",
          "name": "exchange",
          "type": "address"
        }
      ],
      "name": "TrustAdded",
      "type": "event"
    },
    {
      "anonymous": false,
      "inputs": [
        {
          "indexed": true,
          "internalType": "address",
          "name": "exchange",
          "type": "address"
        }
      ],
      "name": "TrustRevoked",
      "type": "event"
    },
    {
      "inputs": [
        {
          "internalType": "address",
          "name": "exchange",
          "type": "address"
        }
      ],
      "name": "addTrust",
      "outputs": [],
      "stateMutability": "nonpayable",
      "type": "function"
    },
    {
      "inputs": [],
      "name": "admin",
      "outputs": [
        {
          "internalType": "address",
          "name": "",
          "type": "address"
        }
      ],
      "stateMutability": "view",
      "type": "function"
    },
    {
      "inputs": [
        {
          "internalType": "address",
          "name": "",
          "type": "address"
        }
      ],
      "name": "isTrusted",
      "outputs": [
        {
          "internalType": "bool",
          "name": "",
          "type": "bool"
        }
      ],
      "stateMutability": "view",
      "type": "function"
    },
    {
      "inputs": [
        {
          "internalType": "address",
          "name": "exchange",
          "type": "address"
        }
      ],
      "name": "removeTrust",
      "outputs": [],
      "stateMutability": "nonpayable",
      "type": "function"
    }
  ],
  "bytecode": "0x608060405234801561001057600080fd5b50336000806101000a81548173ffffffffffffffffffffffffffffffffffffffff021916908373ffffffffffffffffffffffffffffffffffffffff160217905550610515806100606000396000f3fe608060405234801561001057600080fd5b506004361061004c5760003560e01c8063048915e414610051578063847776b21461006d57806396d6487914610089578063f851a440146100b9575b600080fd5b61006b600480360381019061006691906103d5565b6100d7565b005b610087600480360381019061008291906103d5565b610202565b005b6100a3600480360381019061009e91906103d5565b61032e565b6040516100b0919061041d565b60405180910390f35b6100c161034e565b6040516100ce9190610447565b60405180910390f35b60008054906101000a900473ffffffffffffffffffffffffffffffffffffffff1673ffffffffffffffffffffffffffffffffffffffff163373ffffffffffffffffffffffffffffffffffffffff1614610165576040517f08c379a000000000000000000000000000000000000000000000000000000000815260040161015c906104bf565b60405180910390fd5b60018060008373ffffffffffffffffffffffffffffffffffffffff1673ffffffffffffffffffffffffffffffffffffffff16815260200190815260200160002060006101000a81548160ff0219169083151502179055508073ffffffffffffffffffffffffffffffffffffffff167ff6c7ba26e569e01beafb7bb19cabced51bb2b539a89936f751fbf5f51c866e7f60405160405180910390a250565b60008054906101000a900473ffffffffffffffffffffffffffffffffffffffff1673ffffffffffffffffffffffffffffffffffffffff163373ffffffffffffffffffffffffffffffffffffffff1614610290576040517f08c379a0000000000000000000000000000000000000000000000000000000008152600401610287906104bf565b60405180910390fd5b6000600160008373ffffffffffffffffffffffffffffffffffffffff1673ffffffffffffffffffffffffffffffffffffffff16815260200190815260200160002060006101000a81548160ff0219169083151502179055508073ffffffffffffffffffffffffffffffffffffffff167fdda931e62aac61a9bfbf75fb36b777b1ae82ca72542fa0c40f4c09bc96d89f1c60405160405180910390a250565b60016020528060005260406000206000915054906101000a900460ff1681565b60008054906101000a900473ffffffffffffffffffffffffffffffffffffffff1681565b600080fd5b600073ffffffffffffffffffffffffffffffffffffffff82169050919050565b60006103a282610377565b9050919050565b6103b281610397565b81146103bd57600080fd5b50565b6000813590506103cf816103a9565b92915050565b6000602082840312156103eb576103ea610372565b5b60006103f9848285016103c0565b91505092915050565b60008115159050919050565b61041781610402565b82525050565b6000602082019050610432600083018461040e565b92915050565b61044181610397565b82525050565b600060208201905061045c6000830184610438565b92915050565b600082825260208201905092915050565b7f4f6e6c792061646d696e00000000000000000000000000000000000000000000600082015250565b60006104a9600a83610462565b91506104b482610473565b602082019050919050565b600060208201905081810360008301526104d88161049c565b905091905056fea264697066735822122042b26cd4ed7c29fc2f93f6246d63790153b841f4e8ef00f65e750fbe2918326564736f6c63430008130033",
  "linkReferences": {},
  "deployedLinkReferences": {}
}